:020000040800F2
:100000007806002079020008A50D00089D0D000863
:10001000A10D000871040008C90D000800000000CF
:10002000000000000000000000000000AD0D00080E
:100030007504000800000000A90D0008B10D0008BB
:10004000930200089302000893020008930200083C
:10005000930200089302000893020008930200082C
:10006000930200089302000893020008930200081C
:10007000930200089302000893020008930200080C
:1000800093020008930200089302000893020008FC
:100090009302000893020008930200087904000804
:1000A00093020008930200089302000893020008DC
:1000B00093020008930200089302000893020008CC
:1000C00093020008930200089302000893020008BC
:1000D00093020008930200089302000893020008AC
:1000E000930200089302000893020008930200089C
:1000F000930200089302000893020008930200088C
:10010000930200089302000893020008930200087B
:10011000930200089302000893020008930200086B
:10012000930200089302000893020008930200085B
:10013000930200089302000893020008930200084B
:10014000930200089302000893020008930200083B
:10015000930200089302000893020008930200082B
:10016000930200089302000893020008930200081B
:1001700093020008930200089302000800000000A8
:1001800093020008930200089302000893020008FB
:1001900093020008930200089302000893020008EB
:1001A00093020008930200089302000800F002F88E
:1001B00000F052F814A696E8000CB244B344DA45B5
:1001C00001D100F049F8BAE80F000FA696E8300018
:1001D000A5EB040504EB0607AAEB0704A7F101074A
:1001E0004FEA15154FEA3414A4F10104AC4201D3CF
:1001F00000F032F813F0010F18BFFB1A43F00103AF
:1002000000F001F8DBE718471C0D00003C0D000072
:10021000103A24BF78C878C1FAD8520724BF30C832
:1002200030C144BF04680C60704700007047000094
:100230000023002400250026103A28BF78C1FBD8EF
:10024000520728BF30C148BF0B6070471FB500F090
:1002500054FE1FBD10B510BD00F0D0F81146FFF7D9
:10026000F5FF00F0B3FD00F0EEF803B4FFF7F2FF86
:1002700003BC00F0F5F80000094880470948004732
:10028000FEE7FEE7FEE7FEE7FEE7FEE7FEE7FEE746
:10029000FEE7FEE704480549054A064B70470000A3
:1002A000B50D0008AD010008780000207806002098
:1002B000780200207802002053EA020C00F06980E6
:1002C0002DE9F04B4FF00006002B1FBFB3FA83F56A
:1002D00003FA05F424FA05F65E4012BF1643B2FA9B
:1002E00082F502FA05F4C5F120051EBF22FA05FCCD
:1002F00044EA0C04203556EA044C4FEA144418BF73
:10030000641C4FF000084FF00009904271EB030CA1
:1003100039D3002919BFB1FA81F701FA07F6B0FA0B
:1003200080F700FA07F6C7F120071EBF20FA07FC86
:1003300046EA0C062037B6FBF4FCA7EB0507103F96
:1003400007F01F0BCBF120062CFA06F60CFA0BFB7C
:1003500044BFB3460026202FA4BF5E464FF0000BDB
:100360005BEA060C08BF4FF0010B19EB0B0948EBD9
:100370000608ABFB027C06FB02CC0BFB03CCC01BCC
:1003800071EB0C01C1E70B46024641464846BDE809
:10039000F08B13B5084318BF4FF0FF300146AFF3A1
:1003A0000080BDE81C4070474FF0000200B51346C6
:1003B00094469646203922BFA0E80C50A0E80C5085
:1003C000B1F12001BFF4F7AF090728BFA0E80C5036
:1003D00048BF0CC05DF804EB890028BF40F8042B2F
:1003E00008BF704748BF20F8022B11F0804F18BF9C
:1003F00000F8012B7047704770477047754600F052
:100400002BF8AE4605006946534620F007008546A6
:1004100018B020B5FFF73EFFBDE820404FF00006C2
:100420004FF000074FF000084FF0000BAC46ACE86F
:10043000C009ACE8C009ACE8C009ACE8C00921F0CB
:1004400007018D46704710B50446AFF30080204683
:10045000BDE81040FFF709BF0048704710000020BA
:1004600001491820ABBEFEE72600020070470000DD
:10047000FEE70000704700004FF4007000F018B86D
:10048000B0F5007F18BF704710B540F20044C4F2C9
:10049000020420464FF48041002200F0E5F804F504
:1004A00080604FF480710022BDE8104000F0DCB89D
:1004B00043F61441C4F201010A68024214BF086005
:1004C0007047FFF7DDBF00002DE9F04F82B000F16B
:1004D0003E4707F1FF77860546EA972742F2004636
:1004E000C4F202060A2243F6004EB04208BF0922B7
:1004F000C4F2010E092F38BF3A46002600274FF0FC
:100500000008009209E000BF08F101080237B8F1C5
:10051000100F06F1040600F0A3800D68012202FA14
:1005200008F415EA0409EFD0D1F804B003220BF067
:10053000030CACF10105BA40012D6FEA020A0FD895
:100540008268CD6802EA0A02BD402A43826042689E
:10055000A243CBF3001404FA08F42243426005E0FE
:10056000BCF1030F02D14FF0030C1EE0C2688C688F
:1005700002EA0A02BC402243BCF1020FC26014D15D
:100580006FF0030202EA58020244D2F820C006F0DB
:100590001C040F230D69A3402CEA0303A5402B4341
:1005A0001362D1F804B00BF0030C02680CFA07F3E5
:1005B00002EA0A021A431BF4403F0260A4D0002260
:1005C00043F644030192C4F202031A684FF6084C42
:1005D00042F480421A601A68CFF6FF7C02F480422F
:1005E0000192019A28F00302724452F80C3006F08E
:1005F0000C050F24AC40A343009C04FA05F52B43E3
:1006000042F80C30DEF808204B6842EA090543F650
:100610000C4CDC0258BF22EA0905CEF80850C4F29F
:10062000010CDCF800209C0242EA090558BF22EACE
:100630000905CCF80050DEF804209C0342EA0905C5
:1006400058BF22EA0905CEF80450DEF80020DB038B
:1006500042EA090558BF22EA0905CEF8005053E7DF
:1006600002B0BDE8F08F0000002A08BF09048161D4
:100670007047000040F27000C2F20000006870474E
:1006800040F2000040F27001C2F20000C2F200012C
:1006900000780A68104408607047000080B543F68F
:1006A0000040C4F20200016841F400710160016879
:1006B00041F480610160016841F4807101600320B0
:1006C00000F086F80F2000F005F800F027F8002071
:1006D00080BD000070B540F20006C2F2000640F294
:1006E00008013278C2F200014FF47A730968B3FB53
:1006F000F2F20446B1FBF2F1084600F039FB0F2C90
:100700004FF0010508D838B94FF0FF3021460022DC
:10071000002500F031F87460284670BD82B00020DA
:1007200043F640010190C4F202014A6842F480425B
:100730004A604A6802F480420192019A0090086877
:1007400040F080500860086800F0805000900098E9
:1007500002B07047002848BF704700F01F01012217
:1007600002FA01F11C2202EAD0004EF20012CEF28F
:10077000000281507047000010B54EF60C5CCEF2BE
:10078000000CDCF80030C3F3022E8EF00704042CBA
:1007900028BF0424BEF103034FF0FF3E0EFA04F419
:1007A00038BF0023A14399400EFA03F39A43114343
:1007B00000F00F0200F160430901043A03F56443BD
:1007C0006244002848BF02F10C03197010BD0000FC
:1007D0004EF60C51CEF200010A684FF6FF031A40A4
:1007E00060F30A2242F0806040F0FD7008607047BC
:1007F000002804BF012070472DE9F04143F60808A6
:10080000C4F202080446D8F8F8030D4600F00F00C1
:10081000884207D288F8F853D8F8F80300F00F00A0
:10082000A84277D12068810717D5410705D5D8F8A8
:10083000001041F4E051C8F80010010705D5D8F8C0
:10084000001041F46041C8F80010D8F80010A26808
:1008500021F0F0011143C8F80010C00740D1D8F8CA
:10086000F80300F00F00A84207D988F8F853D8F829
:10087000F80300F00F00A8424CD12068410707D5CB
:10088000D8F80010E26821F4E0511143C8F80010D4
:10089000000708D5D8F80000216920F4604040EA3C
:1008A000C100C8F8000000F055F8D8F8001040F674
:1008B0001472C1F30311C0F60002515C40F2080249
:1008C00020FA01F140F20400C2F200000068C2F216
:1008D00000021160FFF7FEFE0020BDE8F08100BFBE
:1008E0006068811E022907D258F8081C89015CBF84
:1008F0000120BDE8F08111E0012807D158F8081C5B
:1009000089035CBF0120BDE8F08107E058F8081CAE
:10091000890703D40120BDE8F08100BFD8F800109A
:1009200021F003010843C8F80000FFF7A3FE0646C4
:1009300041F28837D8F80000616800F00C00B0EB95
:10094000810F8CD0FFF796FE801BB842F2D90320AE
:10095000BDE8F08110B543F60404C4F202046068F7
:1009600000F00C0008280BD0042819BF42F2004008
:10097000C0F2F40047F64000C0F27D1010BD00BF89
:10098000206821682368490247F64001C0F27D11C2
:1009900000F03F02C3F388105CBF42F20041C0F296
:1009A000F401A1FB00010023FFF786FC216802226D
:1009B000C1F3014102EB4101B0FBF1F010BD0000B9
:1009C000002804BF012070472DE9F04182B00446A1
:1009D000007843F60006C007C4F202060CD0B068E7
:1009E00000F00C00042840F081803068800303D5BB
:1009F0006068002800F06A81207880071BD5B06805
:100A000010F00C0F09D0B06800F00C00082840F07E
:100A100087807068400200F183803068800703D5CA
:100A2000E068012840F052813068216920F0F80028
:100A300040EAC10030602078000713D420784007D6
:100A40002AD4A569002D00F03C81B06800F00C00AC
:100A5000082840F0A180012D40F01081012002B053
:100A6000BDE8F0816069002840F20000C4F2472030
:100A700000F07E800121C0F8801EFFF7FBFD0546D7
:100A8000706F8007DAD4FFF7F5FD401B0228F7D915
:100A9000032002B0BDE8F081306C5FEAC0080AD4E0
:100AA00000200190306C40F080503064306C00F0D9
:100AB00080500190019847F20007C4F2000738689F
:100AC000C00547D4386840F480703860FFF7D2FD25
:100AD000054600BF3868C0053CD4FFF7CBFD401B7E
:100AE0000228F7D9032002B0BDE8F081B06800F019
:100AF0000C00082803D1706840023FF576AF6068AB
:100B0000B0F5803F07D0B0F5A02F40F09B80306853
:100B100040F480203060306840F4803030609BE0EA
:100B2000E06800285CD00020C4F247200121016069
:100B3000FFF7A0FD054600BF306880073FF574AFA2
:100B4000FFF798FD401B0228F6D9032002B0BDE84C
:100B5000F08100BFA068012805D0052854D1306F6E
:100B600040F004003067306F40F00100306755E01E
:100B70000021C0F8801EFFF77DFD0546706F8007DD
:100B80007FF55CAFFFF776FD401B0228F6D9032006
:100B900002B0BDE8F08100BF0027C4F24727002063
:100BA0003866FFF767FD022D05460DD130688001DC
:100BB00040F19080FFF75EFD401B02284FF00300DC
:100BC000F4D902B0BDE8F0813068800179D5FFF733
:100BD00051FD401B02284FF00300F5D9F1E700BF9B
:100BE0000020C4F2472000210160FFF743FD0546C5
:100BF000306880077FF51FAFFFF73CFD401B0228E0
:100C00004FF00300F4D9DCE7316F002821F0010137
:100C10003167316F21F0040131677DD0FFF72AFD84
:100C2000054641F2883700BF306F800700F18680AB
:100C3000FFF720FD401BB842F6D9032002B0BDE803
:100C4000F08100BF3168002821F4803131603168C3
:100C500021F4802131607BD0FFF70CFD054600BFF9
:100C6000306880033FF5C8AEFFF704FD401B6428E1
:100C7000F6D9032002B0BDE8F08100BF7068E169D9
:100C800000F480028A4221D1216A00F03F028A42A8
:100C90001CD147F6C071626A0140B1EB821F15D1C9
:100CA000A16A4FF6FF73C903994300F44032A1F5DE
:100CB00080318A420AD1E16A00F07060B0EB016FC6
:100CC00004D1002002B0BDE8F08100BF012002B0D5
:100CD000BDE8F08104F11C052FCD084340EA8210E5
:100CE000D9034FF6FF729143A1F5803140EA0560C8
:100CF0000843706001203866FFF7BCFC044600BF63
:100D000030688001DDD4FFF7B5FC001B02284FF0EE
:100D10000300F5D955E700BFFFF7ACFC054641F2EB
:100D2000883700BF306F800708D5FFF7A3FC401B52
:100D3000B8424FF00300F5D943E700BFB8F1000F08
:100D40003FF57FAE306C20F08050306479E600BF14
:100D5000FFF790FC054600BF306880037FF54CAE7E
:100D6000FFF788FC401B64284FF00300F4D928E704
:100D7000411E0020B0EB116F1CBF012070474EF2E6
:100D80001002CEF2000251604EF62351CEF2000165
:100D9000F0230B700721906011607047FEE70000A0
:100DA000FEE70000FEE7000070470000704700000B
:100DB000FFF766BC4EF68850CEF20000016841F4A1
:100DC0007001016070470000FEE7000092B043F63A
:100DD000300547F20006C4F20205C4F20006FFF730
:100DE0005DFC06AC201D2C21FFF7DEFA00270597DD
:100DF000CDE90377CDE9017700972869012140F01B
:100E000080502861286900F0805000900098009779
:100E1000306861F38F303060306800F440400090FB
:100E200000980220069010200A90204609910C9705
:100E3000FFF7C6FD10B172B6FEE700BF0F20CDE987
:100E4000010701A80021CDE903770597FFF7D0FC42
:100E500010B172B6FEE700BF00270A970197286815
:100E60004FF4804140F0020028602868012200F021
:100E7000020001900198019728684FF4804840F0E3
:100E800004002860286806F5CA3500F004000190C7
:100E9000019828464FF00109FFF7E6FB06F5CC3430
:100EA00020464FF4807101224FF4807AFFF7DCFB7B
:100EB00006AE28463146CDE90689CDE90877FFF729
:100EC00003FB20463146CDE906A9CDE90877FFF7B7
:100ED000FBFA4FF4007006904FF40410CDE90707B9
:100EE00020463146FFF7F0FA172000210022FFF7D5
:100EF00043FC1720FFF72EFCFEE7F1EE100A4FF639
:100F0000FF71C0F2C03120EA010040F04070E1EE14
:100F1000100A7047000000000000000001020304F6
:100F200006070809480F0008000000201000000014
:100F300010020008580F000810000020680600008A
:100F40003002000800000000010000001000000056
:080F50000024F4000000000081
:04000005080001AD41
:00000001FF
