:020000040800F2
:10000000C8060020790200084516000859110008AA
:10001000411600087104000869160008000000007D
:100020000000000000000000000000004D16000865
:100030007504000800000000491600085116000869
:10004000930200089302000893020008930200083C
:10005000930200089302000893020008930200082C
:10006000930200089302000893020008930200081C
:10007000930200089302000893020008930200080C
:1000800093020008930200089302000893020008FC
:100090009302000893020008930200087904000804
:1000A00093020008930200089302000893020008DC
:1000B00093020008930200089302000893020008CC
:1000C00093020008930200089302000893020008BC
:1000D00093020008930200089302000893020008AC
:1000E000930200089302000893020008930200089C
:1000F000930200089302000893020008930200088C
:10010000930200089302000893020008930200087B
:10011000930200089302000893020008930200086B
:10012000930200089302000893020008930200085B
:10013000930200089302000893020008930200084B
:10014000930200089302000893020008930200083B
:10015000930200089302000893020008930200082B
:10016000930200089302000893020008930200081B
:1001700093020008930200089302000800000000A8
:1001800093020008930200089302000893020008FB
:1001900093020008930200089302000893020008EB
:1001A00093020008930200089302000800F002F88E
:1001B00000F052F814A696E8000CB244B344DA45B5
:1001C00001D100F049F8BAE80F000FA696E8300018
:1001D000A5EB040504EB0607AAEB0704A7F101074A
:1001E0004FEA15154FEA3414A4F10104AC4201D3CF
:1001F00000F032F813F0010F18BFFB1A43F00103AF
:1002000000F001F8DBE718476016000080160000D8
:10021000103A24BF78C878C1FAD8520724BF30C832
:1002200030C144BF04680C60704700007047000094
:100230000023002400250026103A28BF78C1FBD8EF
:10024000520728BF30C148BF0B6070471FB501F08F
:10025000F2FA1FBD10B510BD00F0D0F81146FFF73F
:10026000F5FF01F003FA00F0EEF803B4FFF7F2FF38
:1002700003BC00F0F5F80000094880470948004732
:10028000FEE7FEE7FEE7FEE7FEE7FEE7FEE7FEE746
:10029000FEE7FEE704480549054A064B70470000A3
:1002A00055160008AD010008C8000020C80600204F
:1002B000C8020020C802002053EA020C00F0698046
:1002C0002DE9F04B4FF00006002B1FBFB3FA83F56A
:1002D00003FA05F424FA05F65E4012BF1643B2FA9B
:1002E00082F502FA05F4C5F120051EBF22FA05FCCD
:1002F00044EA0C04203556EA044C4FEA144418BF73
:10030000641C4FF000084FF00009904271EB030CA1
:1003100039D3002919BFB1FA81F701FA07F6B0FA0B
:1003200080F700FA07F6C7F120071EBF20FA07FC86
:1003300046EA0C062037B6FBF4FCA7EB0507103F96
:1003400007F01F0BCBF120062CFA06F60CFA0BFB7C
:1003500044BFB3460026202FA4BF5E464FF0000BDB
:100360005BEA060C08BF4FF0010B19EB0B0948EBD9
:100370000608ABFB027C06FB02CC0BFB03CCC01BCC
:1003800071EB0C01C1E70B46024641464846BDE809
:10039000F08B13B5084318BF4FF0FF300146AFF3A1
:1003A0000080BDE81C4070474FF0000200B51346C6
:1003B00094469646203922BFA0E80C50A0E80C5085
:1003C000B1F12001BFF4F7AF090728BFA0E80C5036
:1003D00048BF0CC05DF804EB890028BF40F8042B2F
:1003E00008BF704748BF20F8022B11F0804F18BF9C
:1003F00000F8012B7047704770477047754600F052
:100400002BF8AE4605006946534620F007008546A6
:1004100018B020B5FFF73EFFBDE820404FF00006C2
:100420004FF000074FF000084FF0000BAC46ACE86F
:10043000C009ACE8C009ACE8C009ACE8C00921F0CB
:1004400007018D46704710B50446AFF30080204683
:10045000BDE81040FFF709BF0048704710000020BA
:1004600001491820ABBEFEE72600020070470000DD
:10047000FEE70000704700004FF4007000F00EB877
:10048000B0F5007F18BF704740F20040C4F2020090
:100490004FF48071002200F0DDB8000043F61441F3
:1004A000C4F201010A68024214BF08607047FFF7F6
:1004B000E7BF00002DE9F04F82B000F13E4707F1A1
:1004C000FF77860546EA972742F20046C4F2020605
:1004D0000A2243F6004EB04208BF0922C4F2010EC0
:1004E000092F38BF3A46002600274FF00008009237
:1004F00009E000BF08F101080237B8F1100F06F15A
:10050000040600F0A3800D68012202FA08F415EA3F
:100510000409EFD0D1F804B003220BF0030CACF1C6
:100520000105BA40012D6FEA020A0FD88268CD6832
:1005300002EA0A02BD402A4382604268A243CBF32A
:10054000001404FA08F42243426005E0BCF1030FF2
:1005500002D14FF0030C1EE0C2688C6802EA0A0266
:10056000BC402243BCF1020FC26014D16FF0030201
:1005700002EA58020244D2F820C006F01C040F23FD
:100580000D69A3402CEA0303A5402B431362D1F865
:1005900004B00BF0030C02680CFA07F302EA0A023B
:1005A0001A431BF4403F0260A4D0002243F64403E8
:1005B0000192C4F202031A684FF6084C42F48042DA
:1005C0001A601A68CFF6FF7C02F480420192019A09
:1005D00028F00302724452F80C3006F00C050F2488
:1005E000AC40A343009C04FA05F52B4342F80C30C1
:1005F000DEF808204B6842EA090543F60C4CDC02A1
:1006000058BF22EA0905CEF80850C4F2010CDCF804
:1006100000209C0242EA090558BF22EA0905CCF8ED
:100620000050DEF804209C0342EA090558BF22EA84
:100630000905CEF80450DEF80020DB0342EA090584
:1006400058BF22EA0905CEF8005053E702B0BDE8D2
:10065000F08F0000002A08BF090481617047000084
:1006600040F2C400C2F200000068704790F83D20DC
:10067000202A1CBF02207047242280F83D200268F7
:10068000136823F001031360536A23F010035362CD
:10069000536A19435162116841F001011160202130
:1006A00080F83D100020704790F83D20202A1CBFA4
:1006B00002207047242280F83D20026889B2136826
:1006C00023F001031360D2F824C04FF6F07303EA5D
:1006D0000C0319435162116841F00101116020219E
:1006E00080F83D1000207047002804BF01207047AB
:1006F000F0B581B0044690F83D0028B9002084F898
:100700003C00204600F050F9242084F83D00206889
:10071000016821F001010160016841F400410160BC
:10072000016821F40041016000F0DEFA636848F2DC
:10073000A16CC0F2010C40F60011C0F23D0163450E
:100740003CBF48F28041C0F21E01884202D2012023
:1007500001B0F0BD4DF68361C4F21B31A0FB011264
:100760002168970CD1F804E04FF496762EF03F05FF
:1007700045EA92454D60774348F638160D6AC0F257
:100780004106A7FB067625F03F07634538BF960C68
:10079000721C3A430A62CA6948F2A0664CF6FF77B7
:1007A000C0F20106B34222EA07020BD801385B000F
:1007B000B0FBF3F001306FF31F30042898BF042022
:1007C0001BE000BFA768013857B119277B43B0FB76
:1007D000F3F001306FF31F3070B100F5804007E097
:1007E00003EB4303B0FBF3F001306FF31F3018B19C
:1007F00000F5004001E000BF01201043C861086817
:10080000D4E9072320F0C00010431843086088682B
:1008100048F2FF3204F10C0790438CCF1843104389
:10082000A6698860C86820F0FF0038433043C8607C
:10083000086840F00100086000202021206484F84E
:100840003D10206384F83E0001B0F0BD2DE9F04377
:1008500083B0994616460F460446FFF701FF94F809
:100860003D10202924D10546206800BF81698907F1
:100870001AD5FFF7F5FE411B20681A29F6D38169C6
:100880008907F3D500202021206384F83D1084F8E7
:100890003E00216C41F02001216484F83C000220DC
:1008A00003B0BDE8F08300BF94F83C10012903D1E8
:1008B000022003B0BDE8F083012284F83C200368E5
:1008C000DDE90B180A9ADB0703D1036843F0010343
:1008D0000360036823F400630360212084F83D0073
:1008E000402084F83E000020206462626185608DB3
:1008F000394620850020CFF6FF70E0622046324660
:100900004B46CDE9008500F029FC18B1012003B069
:10091000BDE8F083208D98B9204641462A4600F074
:1009200081FC88B3206C0428F0D12068016841F470
:1009300000710160012003B0BDE8F0830004EBD03A
:10094000204641462A4600F01DFE0028EAD1616A91
:100950002268084610F8013B1361238D6062581E1F
:100960002085678D013F678557697F07E6D50704B6
:10097000E4D048781061881C6062981E2085618DE3
:1009800001396185DAE700BF2068016841F4007130
:100990000160202084F83D00002084F83E0084F8A7
:1009A0003C0003B0BDE8F083016845F20040C4F2AA
:1009B0000000814218BF7047B0B586B0002543F6ED
:1009C00030040195C4F20204216800F5D83041F0EA
:1009D00002012160216801F0020101910199C02109
:1009E000019112210291012103910321049104211B
:1009F000059101A9FFF75EFD0095206940F4001004
:100A00002061206900F400100090009806B0BDE855
:100A1000B040704740F2000040F2C401C2F2000052
:100A2000C2F2000100780A681044086070470000B4
:100A300080B543F60040C4F20200016841F4007141
:100A40000160016841F480610160016841F48071D6
:100A50000160032000F086F80F2000F005F800F098
:100A600027F8002080BD000070B540F20006C2F2F9
:100A7000000640F208013278C2F200014FF47A73A6
:100A80000968B3FBF2F20446B1FBF2F1084600F04C
:100A90004DFB0F2C4FF0010508D838B94FF0FF304F
:100AA00021460022002500F031F87460284670BD10
:100AB00082B0002043F640010190C4F202014A686E
:100AC00042F480424A604A6802F480420192019AEC
:100AD0000090086840F080500860086800F080507E
:100AE0000090009802B07047002848BF704700F09F
:100AF0001F01012202FA01F11C2202EAD0004EF28B
:100B00000012CEF2000281507047000010B54EF680
:100B10000C5CCEF2000CDCF80030C3F3022E8EF039
:100B20000704042C28BF0424BEF103034FF0FF3E4A
:100B30000EFA04F438BF0023A14399400EFA03F3E0
:100B40009A43114300F00F0200F160430901043A97
:100B500003F564436244002848BF02F10C03197096
:100B600010BD00004EF60C51CEF200010A684FF69F
:100B7000FF031A4060F30A2242F0806040F0FD70EB
:100B800008607047002804BF012070472DE9F0413C
:100B900043F60808C4F202080446D8F8F8030D46E4
:100BA00000F00F00884207D288F8F853D8F8F8030D
:100BB00000F00F00A84277D12068810717D54107C0
:100BC00005D5D8F8001041F4E051C8F8001001072D
:100BD00005D5D8F8001041F46041C8F80010D8F8E5
:100BE0000010A26821F0F0011143C8F80010C007FE
:100BF00040D1D8F8F80300F00F00A84207D988F8D0
:100C0000F853D8F8F80300F00F00A8424CD1206840
:100C1000410707D5D8F80010E26821F4E0511143EC
:100C2000C8F80010000708D5D8F80000216920F4A2
:100C3000604040EAC100C8F8000000F069F8D8F848
:100C4000001041F65002C1F30311C0F60002515CDE
:100C500040F2080220FA01F140F20400C2F2000062
:100C60000068C2F200021160FFF7FEFE0020BDE83E
:100C7000F08100BF6068811E022907D258F8081C65
:100C800089015CBF0120BDE8F08111E0012807D196
:100C900058F8081C89035CBF0120BDE8F08107E01B
:100CA00058F8081C890703D40120BDE8F08100BF73
:100CB000D8F8001021F003010843C8F80000FFF73E
:100CC000CFFC064641F28837D8F80000616800F092
:100CD0000C00B0EB810F8CD0FFF7C2FC801BB84238
:100CE000F2D90320BDE8F08140F2080043F6080184
:100CF000C2F20000C4F202010068096841F6600215
:100D0000C1F38221C0F60002515CC8407047000068
:100D100010B543F60404C4F20204606800F00C004D
:100D200008280BD0042819BF42F20040C0F2F4009A
:100D300047F64000C0F27D1010BD00BF206821685A
:100D40002368490247F64001C0F27D1100F03F02DE
:100D5000C3F388105CBF42F20041C0F2F401A1FB72
:100D600000010023FFF7A8FA21680222C1F3014124
:100D700002EB4101B0FBF1F010BD0000002804BF00
:100D8000012070472DE9F04182B00446007843F617
:100D90000006C007C4F202060CD0B06800F00C00D8
:100DA000042840F081803068800303D56068002803
:100DB00000F06A81207880071BD5B06810F00C0F16
:100DC00009D0B06800F00C00082840F087807068F7
:100DD000400200F183803068800703D5E068012875
:100DE00040F052813068216920F0F80040EAC100EB
:100DF00030602078000713D4207840072AD4A569F2
:100E0000002D00F03C81B06800F00C00082840F094
:100E1000A180012D40F01081012002B0BDE8F081D9
:100E20006069002840F20000C4F2472000F07E8094
:100E30000121C0F8801EFFF713FC0546706F800784
:100E4000DAD4FFF70DFC401B0228F7D9032002B0CB
:100E5000BDE8F081306C5FEAC0080AD40020019040
:100E6000306C40F080503064306C00F08050019065
:100E7000019847F20007C4F200073868C00547D45C
:100E8000386840F480703860FFF7EAFB054600BF21
:100E90003868C0053CD4FFF7E3FB401B0228F7D9B4
:100EA000032002B0BDE8F081B06800F00C00082813
:100EB00003D1706840023FF576AF6068B0F5803FBF
:100EC00007D0B0F5A02F40F09B80306840F4802020
:100ED0003060306840F4803030609BE0E06800288B
:100EE0005CD00020C4F2472001210160FFF7B8FB6D
:100EF000054600BF306880073FF574AFFFF7B0FBD1
:100F0000401B0228F6D9032002B0BDE8F08100BFE3
:100F1000A068012805D0052854D1306F40F00400A6
:100F20003067306F40F00100306755E00021C0F8B5
:100F3000801EFFF795FB0546706F80077FF55CAF5D
:100F4000FFF78EFB401B0228F6D9032002B0BDE854
:100F5000F08100BF0027C4F2472700203866FFF762
:100F60007FFB022D05460DD13068800140F1908055
:100F7000FFF776FB401B02284FF00300F4D902B0C4
:100F8000BDE8F0813068800179D5FFF769FB401B2F
:100F900002284FF00300F5D9F1E700BF0020C4F2AA
:100FA000472000210160FFF75BFB054630688007A2
:100FB0007FF51FAFFFF754FB401B02284FF00300E3
:100FC000F4D9DCE7316F002821F001013167316F7E
:100FD00021F0040131677DD0FFF742FB054641F265
:100FE000883700BF306F800700F18680FFF738FB3D
:100FF000401BB842F6D9032002B0BDE8F08100BF23
:101000003168002821F480313160316821F4802179
:1010100031607BD0FFF724FB054600BF30688003BA
:101020003FF5C8AEFFF71CFB401B6428F6D9032030
:1010300002B0BDE8F08100BF7068E16900F4800291
:101040008A4221D1216A00F03F028A421CD147F630
:10105000C071626A0140B1EB821F15D1A16A4FF6DF
:10106000FF73C903994300F44032A1F580318A42ED
:101070000AD1E16A00F07060B0EB016F04D100208A
:1010800002B0BDE8F08100BF012002B0BDE8F081F0
:1010900004F11C052FCD084340EA8210D9034FF616
:1010A000FF729143A1F5803140EA0560084370600A
:1010B00001203866FFF7D4FA044600BF306880018B
:1010C000DDD4FFF7CDFA001B02284FF00300F5D95D
:1010D00055E700BFFFF7C4FA054641F2883700BF65
:1010E000306F800708D5FFF7BBFA401BB8424FF0BE
:1010F0000300F5D943E700BFB8F1000F3FF57FAE1D
:10110000306C20F08050306479E600BFFFF7A8FA19
:10111000054600BF306880037FF54CAEFFF7A0FAAC
:10112000401B64284FF00300F4D928E7411E00203B
:10113000B0EB116F1CBF012070474EF21002CEF2CF
:10114000000251604EF62351CEF20001F0230B70E5
:101150000721906011607047FEE700002DE9F04321
:1011600083B0044600680D4601680A9F0B9E41F457
:10117000807199469046016020464FF0011100228F
:101180003B46009600F0ACF850B120680068C005FE
:1011900044BF4FF400702064032003B0BDE8F08327
:1011A000206805F0FE0101610221C0F20101204624
:1011B0003A46334600F07AF920B1012003B0BDE889
:1011C000F08300BF002002902068324641690291FE
:1011D0008069394602900298204600F0D3F958B150
:1011E000206C0428E9D12068016841F40071016095
:1011F000012003B0BDE8F0832068B9F1010F0AD0E7
:101200004FEA1821016120463946324600F0BAF90A
:101210000028E5D120685FFA88F10161002003B061
:10122000BDE8F08370B50368044653F8140F400717
:1012300011D40E46481C29D086BB00BF1868400553
:1012400027D4FFF70DFA236853F8140F400737D55A
:1012500018684007F2D5002070BD00BF186840072D
:10126000F9D41868400514D418684007F3D41868F6
:1012700040050ED418684007EDD41868400508D41E
:10128000186840074FF0000048BF70BD186840055F
:10129000E4D56FF480601860042012E0154603E086
:1012A00053F8140F4007D6D418684005F1D4FFF75F
:1012B000D7F9401B2368B042F2D958694007EFD4F0
:1012C000202000212022216384F83D2084F83E1054
:1012D000226C10432064012084F83C1070BD000093
:1012E0002DE9F041054600681E46144601F47F02D0
:1012F00001338FB242D0DDF81880B2F5803F40F064
:10130000878040693840C01BB0FA80F04009A04295
:1013100040F0C8804EB924E040693840C01BB0FAA4
:1013200080F04009A04240F0BD80FFF799F9A0EBA2
:1013300008012868B142EFD941693940C91BB1FAA7
:1013400081F14909A142E7D19BE000BF40693840E3
:10135000C01BB0FA80F04009A0424FF0000040F0FE
:10136000A280FFF77DF9286841693940C91BB1FAAD
:1013700081F14909A142E9D183E000BFB2F5803F84
:1013800024D100BF41693940C91BB1FA81F1490933
:10139000A14240F0878041693940C91BB1FA81F10F
:1013A0004909A14240F07E8041693940C91BB1FA28
:1013B00081F14909A14275D141693940C91BB1FA8E
:1013C00081F14909A142DDD06CE000BF816939405B
:1013D000C91BB1FA81F14909A14263D18169394040
:1013E000C91BB1FA81F14909A1425BD18169394038
:1013F000C91BB1FA81F14909A14253D18169394030
:10140000C91BB1FA81F14909A142DFD04AE000BF0E
:1014100080693840C01BB0FA80F04009A04241D139
:1014200046B923E080693840C01BB0FA80F040091B
:10143000A04237D1FFF714F9A0EB08012868B142A8
:10144000F0D981693940C91BB1FA81F14909A1423A
:10145000E8D116E080693840C01BB0FA80F040093E
:10146000A0424FF0000018BFBDE8F081FFF7F8F888
:10147000286881693940C91BB1FA81F14909A14243
:10148000E8D100202021286385F83D1085F83E0032
:10149000296C41F02001296485F83C000120BDE859
:1014A000F08100BF0020BDE8F0810000F0B581B000
:1014B000044600681D4643698FB203EA0701B9423A
:1014C00002D1002001B0F0BD4169164601323FD083
:1014D00049053FD4CEB100BFFFF7C2F8411B2068D9
:1014E000B14203D941693940B94215D14169394006
:1014F000B942E6D041694905EED52BE04169394052
:10150000B942DED04169490524D4FFF7A9F8206823
:1015100041693940B942F1D0202023E04169394086
:10152000B942CED04169490514D441693940B94224
:10153000C7D0416949050DD441693940B942C0D08D
:101540004169490506D441693940B942B9D0416978
:101550004905E3D5016841F4007101606FF48061D1
:101560004161042000212022216384F83D2084F879
:101570003E10226C1043206484F83C10012001B01E
:10158000F0BD000070B50368044653F8140F000660
:1015900011D40E46481C29D086BB00BF18684005F0
:1015A00027D4FFF75DF8236853F8140F000637D5EA
:1015B00018680006F2D5002070BD00BF186800064C
:1015C000F9D41868400514D418680006F3D41868D4
:1015D00040050ED418680006EDD41868400508D4FC
:1015E000186800064FF0000048BF70BD186840053D
:1015F000E4D56FF480601860042012E0154603E023
:1016000053F8140F0006D6D418684005F1D4FFF73C
:1016100027F8401B2368B042F2D958690006EFD47E
:10162000202000212022216384F83D2084F83E10F0
:10163000226C10432064012084F83C1070BD00002F
:10164000FEE70000FEE70000704700007047000062
:10165000FFF7E0B94EF68850CEF20000016841F481
:101660007001016070470000FEE7000096B043F68D
:10167000300640F20044C4F20206C4F20204FFF74E
:10168000D7F90AAD281D2C21FEF78EFE00270997F9
:10169000CDE90777CDE9057704973069012240F05D
:1016A00080503061306900F080500490049846F614
:1016B00000400497CFF6FE70215862F38F3121501D
:1016C000205800F440400490049802200A90102012
:1016D0000E9028460D921097FFF750FB10B172B68E
:1016E000FEE700BF0F20CDE9050705A80021CDE9E1
:1016F00007770997FFF746FA10B172B6FEE700BF09
:1017000000270E97059730684FF4807140F0020073
:1017100030603068002200F00200059005982046F5
:101720004FF48075FEF796FF0A9501200AADCDE9CA
:101730000B07204629460D97FEF7BCFE4FF40070BC
:101740000A904FF48810CDE90B0720462946FEF792
:10175000B1FE172000210022FFF7D8F91720FFF76C
:10176000C3F940F2700045F20041C2F20000C4F239
:10177000000148F2A0624FF48043C0F2010280E809
:101780008600C0E90373C0E90577C0E90777FEF773
:10179000ABFF18B172B600BFFEE700BF40F27000A9
:1017A000C2F200000021FEF761FF18B172B600BF5F
:1017B000FEE700BF40F27000C2F200000021FEF719
:1017C00073FF18B172B600BFFEE700BF40F27006AB
:1017D0000820C2F200068DF828004FF0FF380127DC
:1017E0003046A6212D220123CDE90057CDF80880EF
:1017F000FFF72CF810208DF828003046A6212E2265
:101800000123CDE90057CDF80880FFF71FF8EF203E
:101810008DF828003046A6212F220123CDE900575C
:10182000CDF80880FFF712F820464FF480710122AE
:10183000FEF710FFFEE7F1EE100A4FF6FF71C0F25F
:10184000C03120EA010040F04070E1EE100A70471C
:101850000000000000000000010203040607080960
:1018600000000000010203048818000800000020A6
:101870001000000010020008981800081000002056
:10188000B80600003002000801000000100000004F
:081890000024F4000000000038
:04000005080001AD41
:00000001FF
